{"abi":[{"type":"constructor","inputs":[],"stateMutability":"nonpayable"},{"type":"function","name":"bridgeWithPermit","inputs":[{"name":"bridgeParams","type":"tuple","internalType":"struct BridgingKitContract.BridgeParams","components":[{"name":"amount","type":"uint256","internalType":"uint256"},{"name":"maxFee","type":"uint256","internalType":"uint256"},{"name":"fee","type":"uint256","internalType":"uint256"},{"name":"mintRecipient","type":"bytes32","internalType":"bytes32"},{"name":"destinationCaller","type":"bytes32","internalType":"bytes32"},{"name":"burnToken","type":"address","internalType":"address"},{"name":"feeRecipient","type":"address","internalType":"address"},{"name":"destinationDomain","type":"uint32","internalType":"uint32"},{"name":"minFinalityThreshold","type":"uint32","internalType":"uint32"}]},{"name":"permitParams","type":"tuple","internalType":"struct BridgingKitContract.PermitParams","components":[{"name":"deadline","type":"uint256","internalType":"uint256"},{"name":"v","type":"uint8","internalType":"uint8"},{"name":"r","type":"bytes32","internalType":"bytes32"},{"name":"s","type":"bytes32","internalType":"bytes32"}]}],"outputs":[],"stateMutability":"nonpayable"},{"type":"function","name":"bridgeWithPermitAndHook","inputs":[{"name":"bridgeParams","type":"tuple","internalType":"struct BridgingKitContract.BridgeParams","components":[{"name":"amount","type":"uint256","internalType":"uint256"},{"name":"maxFee","type":"uint256","internalType":"uint256"},{"name":"fee","type":"uint256","internalType":"uint256"},{"name":"mintRecipient","type":"bytes32","internalType":"bytes32"},{"name":"destinationCaller","type":"bytes32","internalType":"bytes32"},{"name":"burnToken","type":"address","internalType":"address"},{"name":"feeRecipient","type":"address","internalType":"address"},{"name":"destinationDomain","type":"uint32","internalType":"uint32"},{"name":"minFinalityThreshold","type":"uint32","internalType":"uint32"}]},{"name":"permitParams","type":"tuple","internalType":"struct BridgingKitContract.PermitParams","components":[{"name":"deadline","type":"uint256","internalType":"uint256"},{"name":"v","type":"uint8","internalType":"uint8"},{"name":"r","type":"bytes32","internalType":"bytes32"},{"name":"s","type":"bytes32","internalType":"bytes32"}]},{"name":"hookData","type":"bytes","internalType":"bytes"}],"outputs":[],"stateMutability":"nonpayable"},{"type":"function","name":"bridgeWithPreapproval","inputs":[{"name":"bridgeParams","type":"tuple","internalType":"struct BridgingKitContract.BridgeParams","components":[{"name":"amount","type":"uint256","internalType":"uint256"},{"name":"maxFee","type":"uint256","internalType":"uint256"},{"name":"fee","type":"uint256","internalType":"uint256"},{"name":"mintRecipient","type":"bytes32","internalType":"bytes32"},{"name":"destinationCaller","type":"bytes32","internalType":"bytes32"},{"name":"burnToken","type":"address","internalType":"address"},{"name":"feeRecipient","type":"address","internalType":"address"},{"name":"destinationDomain","type":"uint32","internalType":"uint32"},{"name":"minFinalityThreshold","type":"uint32","internalType":"uint32"}]}],"outputs":[],"stateMutability":"nonpayable"},{"type":"function","name":"bridgeWithPreapprovalAndHook","inputs":[{"name":"bridgeParams","type":"tuple","internalType":"struct BridgingKitContract.BridgeParams","components":[{"name":"amount","type":"uint256","internalType":"uint256"},{"name":"maxFee","type":"uint256","internalType":"uint256"},{"name":"fee","type":"uint256","internalType":"uint256"},{"name":"mintRecipient","type":"bytes32","internalType":"bytes32"},{"name":"destinationCaller","type":"bytes32","internalType":"bytes32"},{"name":"burnToken","type":"address","internalType":"address"},{"name":"feeRecipient","type":"address","internalType":"address"},{"name":"destinationDomain","type":"uint32","internalType":"uint32"},{"name":"minFinalityThreshold","type":"uint32","internalType":"uint32"}]},{"name":"hookData","type":"bytes","internalType":"bytes"}],"outputs":[],"stateMutability":"nonpayable"},{"type":"function","name":"calculateFeeShares","inputs":[{"name":"fee","type":"uint256","internalType":"uint256"}],"outputs":[{"name":"developerShare","type":"uint256","internalType":"uint256"},{"name":"protocolShare","type":"uint256","internalType":"uint256"}],"stateMutability":"view"},{"type":"function","name":"cctpContract","inputs":[],"outputs":[{"name":"","type":"address","internalType":"contract ICCTP"}],"stateMutability":"view"},{"type":"function","name":"getProtocolFee","inputs":[{"name":"fee","type":"uint256","internalType":"uint256"}],"outputs":[{"name":"protocolFee","type":"uint256","internalType":"uint256"}],"stateMutability":"view"},{"type":"function","name":"getProtocolFeeConfig","inputs":[],"outputs":[{"name":"protocolFeeShareBips","type":"uint256","internalType":"uint256"},{"name":"protocolFeeWallet","type":"address","internalType":"address"}],"stateMutability":"view"},{"type":"function","name":"initialize","inputs":[{"name":"_owner","type":"address","internalType":"address"},{"name":"_cctpContract","type":"address","internalType":"address"}],"outputs":[],"stateMutability":"nonpayable"},{"type":"function","name":"owner","inputs":[],"outputs":[{"name":"","type":"address","internalType":"address"}],"stateMutability":"view"},{"type":"function","name":"pause","inputs":[],"outputs":[],"stateMutability":"nonpayable"},{"type":"function","name":"paused","inputs":[],"outputs":[{"name":"","type":"bool","internalType":"bool"}],"stateMutability":"view"},{"type":"function","name":"renounceOwnership","inputs":[],"outputs":[],"stateMutability":"nonpayable"},{"type":"function","name":"setCCTPContract","inputs":[{"name":"_cctpContract","type":"address","internalType":"address"}],"outputs":[],"stateMutability":"nonpayable"},{"type":"function","name":"setProtocolFeeConfig","inputs":[{"name":"bips","type":"uint256","internalType":"uint256"},{"name":"wallet","type":"address","internalType":"address"}],"outputs":[],"stateMutability":"nonpayable"},{"type":"function","name":"setProtocolFeeShare","inputs":[{"name":"bips","type":"uint256","internalType":"uint256"}],"outputs":[],"stateMutability":"nonpayable"},{"type":"function","name":"setProtocolFeeWallet","inputs":[{"name":"wallet","type":"address","internalType":"address"}],"outputs":[],"stateMutability":"nonpayable"},{"type":"function","name":"transferOwnership","inputs":[{"name":"newOwner","type":"address","internalType":"address"}],"outputs":[],"stateMutability":"nonpayable"},{"type":"function","name":"unpause","inputs":[],"outputs":[],"stateMutability":"nonpayable"},{"type":"function","name":"version","inputs":[],"outputs":[{"name":"","type":"string","internalType":"string"}],"stateMutability":"pure"},{"type":"event","name":"BridgingKitInitialized","inputs":[{"name":"owner","type":"address","indexed":true,"internalType":"address"},{"name":"version","type":"string","indexed":false,"internalType":"string"}],"anonymous":false},{"type":"event","name":"CCTPContractUpdated","inputs":[{"name":"newCCTPContract","type":"address","indexed":true,"internalType":"address"}],"anonymous":false},{"type":"event","name":"Initialized","inputs":[{"name":"version","type":"uint64","indexed":false,"internalType":"uint64"}],"anonymous":false},{"type":"event","name":"OwnershipTransferred","inputs":[{"name":"previousOwner","type":"address","indexed":true,"internalType":"address"},{"name":"newOwner","type":"address","indexed":true,"internalType":"address"}],"anonymous":false},{"type":"event","name":"Paused","inputs":[{"name":"account","type":"address","indexed":false,"internalType":"address"}],"anonymous":false},{"type":"event","name":"ProtocolFeeShareUpdated","inputs":[{"name":"bips","type":"uint256","indexed":false,"internalType":"uint256"}],"anonymous":false},{"type":"event","name":"ProtocolFeeWalletUpdated","inputs":[{"name":"wallet","type":"address","indexed":false,"internalType":"address"}],"anonymous":false},{"type":"event","name":"Unpaused","inputs":[{"name":"account","type":"address","indexed":false,"internalType":"address"}],"anonymous":false},{"type":"error","name":"EnforcedPause","inputs":[]},{"type":"error","name":"ExpectedPause","inputs":[]},{"type":"error","name":"InvalidInitialization","inputs":[]},{"type":"error","name":"NotInitializing","inputs":[]},{"type":"error","name":"OwnableInvalidOwner","inputs":[{"name":"owner","type":"address","internalType":"address"}]},{"type":"error","name":"OwnableUnauthorizedAccount","inputs":[{"name":"account","type":"address","internalType":"address"}]},{"type":"error","name":"ReentrancyGuardReentrantCall","inputs":[]}],"bytecode":{"object":"0x6080604052348015600e575f5ffd5b5060156019565b60c9565b7ff0c57e16840df040f15088dc2f81fe391c3923bec73e23a9662efc9c229c6a00805468010000000000000000900460ff161560685760405163f92ee8a960e01b815260040160405180910390fd5b80546001600160401b039081161460c65780546001600160401b0319166001600160401b0390811782556040519081527fc7f505b2f371ae2175ee4913f4499e1f2633a7b5936321eed1cdaeb6115181d29060200160405180910390a15b50565b611a07806100d65f395ff3fe608060405234801561000f575f5ffd5b5060043610610127575f3560e01c8063715018a6116100a9578063ba3ada421161006e578063ba3ada42146102b4578063d0d4229a146102c7578063e639cb7b146102da578063f2fde38b146102ed578063f742919b14610300575f5ffd5b8063715018a61461022b5780637978bd01146102335780637ce78525146102555780638456cb59146102685780638da5cb5b14610270575f5ffd5b8063513e1175116100ef578063513e1175146101a957806353a39028146101bc57806354fd4d50146101cf5780635c975abb146101f65780636333b4b314610218575f5ffd5b80630f0245ad1461012b578063224b7e311461015157806329f783f5146101665780633f4ba83a1461018e578063485cc95514610196575b5f5ffd5b61013e610139366004611517565b610313565b6040519081526020015b60405180910390f35b61016461015f366004611549565b610323565b005b610179610174366004611517565b6103c6565b60408051928352602083019190915201610148565b6101646103e4565b6101646101a4366004611569565b6103f6565b6101646101b73660046115f6565b61057c565b6101646101ca366004611658565b610615565b60408051808201825260058152640312e302e360dc1b6020820152905161014891906116e8565b5f5160206119925f395f51905f525460ff166040519015158152602001610148565b6101646102263660046116fa565b610694565b610164610776565b5f54600154604080519283526001600160a01b03909116602083015201610148565b610164610263366004611549565b610787565b61016461080a565b7f9016d09d72d40fdae2fd8ceac6b6234c7706214fd39c1cd1e609a0528c199300546001600160a01b03165b6040516001600160a01b039091168152602001610148565b6101646102c236600461171b565b61081a565b6101646102d5366004611747565b61086e565b60025461029c906001600160a01b031681565b6101646102fb366004611549565b6108dd565b61016461030e366004611517565b610917565b5f61031d82610975565b92915050565b61032b610990565b6001600160a01b03811661037d5760405162461bcd60e51b8152602060048201526014602482015273496e76616c69642043435450206164647265737360601b60448201526064015b60405180910390fd5b600280546001600160a01b0319166001600160a01b0383169081179091556040517f13e43351de668f0b723ba56a1387b2017c3de0ba668b3c9230d6db21a59e74cf905f90a250565b5f5f6103d183610975565b90506103dd8184611776565b9150915091565b6103ec610990565b6103f46109eb565b565b5f6103ff610a44565b805490915060ff600160401b820416159067ffffffffffffffff165f811580156104265750825b90505f8267ffffffffffffffff1660011480156104425750303b155b905081158015610450575080155b1561046e5760405163f92ee8a960e01b815260040160405180910390fd5b845467ffffffffffffffff19166001178555831561049857845460ff60401b1916600160401b1785555b6104a187610a6c565b6104a9610a7d565b6104b1610a85565b600280546001600160a01b038089166001600160a01b03199092169190911790915587167f7023d0700486f24148006aee2c2a8de3c33c51fd84ed2772ab1351ad5e2e04616105186040805180820190915260058152640312e302e360dc1b602082015290565b60405161052591906116e8565b60405180910390a2831561057357845460ff60401b19168555604051600181527fc7f505b2f371ae2175ee4913f4499e1f2633a7b5936321eed1cdaeb6115181d29060200160405180910390a15b50505050505050565b610584610a95565b61058c610ac5565b6105b660405180608001604052805f81526020015f60ff1681526020015f81526020015f81525090565b6105f9848285858080601f0160208091040260200160405190810160405280939291908181526020018383808284375f920182905250925060019150610afc9050565b5061061060015f5160206119b25f395f51905f5255565b505050565b61061d610a95565b610625610ac5565b6106788461063836869003860186611789565b84848080601f0160208091040260200160405190810160405280939291908181526020018383808284375f9201919091525060019250829150610afc9050565b61068e60015f5160206119b25f395f51905f5255565b50505050565b61069c610990565b6001600160a01b0381166106c25760405162461bcd60e51b815260040161037490611806565b6127108211156106e45760405162461bcd60e51b81526004016103749061184a565b5f829055600180546001600160a01b0319166001600160a01b0383161790556040518281527f4d1fc9430e27afb14db15169fd1c79e8b51773302919ac8c049f1c41995e380b9060200160405180910390a16040516001600160a01b03821681527f358018fb4c5e0f195ed9d5f483395376c4e634908ce5c6dc3b86171060ff2e089060200160405180910390a15050565b61077e610990565b6103f45f610ef2565b61078f610990565b6001600160a01b0381166107b55760405162461bcd60e51b815260040161037490611806565b600180546001600160a01b0319166001600160a01b0383169081179091556040519081527f358018fb4c5e0f195ed9d5f483395376c4e634908ce5c6dc3b86171060ff2e08906020015b60405180910390a150565b610812610990565b6103f4610f62565b610822610a95565b61082a610ac5565b6108548261083d36849003840184611789565b60405180602001604052805f81525060015f610afc565b61086a60015f5160206119b25f395f51905f5255565b5050565b610876610a95565b61087e610ac5565b6108a860405180608001604052805f81526020015f60ff1681526020015f81526020015f81525090565b6108c3828260405180602001604052805f8152505f5f610afc565b506108da60015f5160206119b25f395f51905f5255565b50565b6108e5610990565b6001600160a01b03811661090e57604051631e4fbdf760e01b81525f6004820152602401610374565b6108da81610ef2565b61091f610990565b6127108111156109415760405162461bcd60e51b81526004016103749061184a565b5f8190556040518181527f4d1fc9430e27afb14db15169fd1c79e8b51773302919ac8c049f1c41995e380b906020016107ff565b5f6127105f5483610986919061188f565b61031d91906118a6565b336109c27f9016d09d72d40fdae2fd8ceac6b6234c7706214fd39c1cd1e609a0528c199300546001600160a01b031690565b6001600160a01b0316146103f45760405163118cdaa760e01b8152336004820152602401610374565b6109f3610faa565b5f5160206119925f395f51905f52805460ff191681557f5db9ee0a495bf2e6ff9c91a7834c1ba4fdd244a5e8aa4e537bd38aeae4b073aa335b6040516001600160a01b0390911681526020016107ff565b5f807ff0c57e16840df040f15088dc2f81fe391c3923bec73e23a9662efc9c229c6a0061031d565b610a74610fd9565b6108da81610ffe565b6103f4610fd9565b610a8d610fd9565b6103f4611006565b5f5160206119925f395f51905f525460ff16156103f45760405163d93c066560e01b815260040160405180910390fd5b5f5160206119b25f395f51905f52805460011901610af657604051633ee5aeb560e01b815260040160405180910390fd5b60029055565b610b20858283610b1a5760405180602001604052805f81525061100e565b8561100e565b8115610b4e57610b4e610b3960c0870160a08801611549565b610b48604088013588356118c5565b866111e3565b610b5e60c0860160a08701611549565b6001600160a01b03166323b872dd3330610b7d60408a01358a356118c5565b6040516001600160e01b031960e086901b1681526001600160a01b03938416600482015292909116602483015260448201526064016020604051808303815f875af1158015610bce573d5f5f3e3d5ffd5b505050506040513d601f19601f82011682018060405250810190610bf291906118d8565b610c3e5760405162461bcd60e51b815260206004820152601f60248201527f5472616e7366657220746f206272696467696e67206b6974206661696c6564006044820152606401610374565b5f5f610c4d87604001356103c6565b9092509050610c7c610c6560c0890160a08a01611549565b8383610c7760e08c0160c08d01611549565b6112b1565b610c8c60c0880160a08901611549565b60025460405163095ea7b360e01b81526001600160a01b0391821660048201528935602482015291169063095ea7b3906044016020604051808303815f875af1158015610cdb573d5f5f3e3d5ffd5b505050506040513d601f19601f82011682018060405250810190610cff91906118d8565b610d4b5760405162461bcd60e51b815260206004820152601860248201527f417070726f76616c20666f722043435450206661696c656400000000000000006044820152606401610374565b8215610dfe576002546001600160a01b031663779b432d8835610d756101008b0160e08c016118f7565b60608b0135610d8a60c08d0160a08e01611549565b8c608001358d602001358e610100016020810190610da891906118f7565b8d6040518963ffffffff1660e01b8152600401610dcc98979695949392919061191a565b5f604051808303815f87803b158015610de3575f5ffd5b505af1158015610df5573d5f5f3e3d5ffd5b50505050610573565b6002546001600160a01b0316638e0250ee8835610e226101008b0160e08c016118f7565b60608b0135610e3760c08d0160a08e01611549565b8c608001358d602001358e610100016020810190610e5591906118f7565b6040516001600160e01b031960e08a901b168152600481019790975263ffffffff958616602488015260448701949094526001600160a01b039092166064860152608485015260a48401521660c482015260e4015f604051808303815f87803b158015610ec0575f5ffd5b505af1158015610ed2573d5f5f3e3d5ffd5b5050505050505050505050565b60015f5160206119b25f395f51905f5255565b7f9016d09d72d40fdae2fd8ceac6b6234c7706214fd39c1cd1e609a0528c19930080546001600160a01b031981166001600160a01b03848116918217845560405192169182907f8be0079c531659141344cd1fd0a4f28419497f9722a3daafe3b4186f6b6457e0905f90a3505050565b610f6a610a95565b5f5160206119925f395f51905f52805460ff191660011781557f62e78cea01bee320cd4e420270b5ea74000d11b0c9f74754ebdbfc544b05a25833610a2c565b5f5160206119925f395f51905f525460ff166103f457604051638dfc202b60e01b815260040160405180910390fd5b610fe16114fe565b6103f457604051631afcd79f60e31b815260040160405180910390fd5b6108e5610fd9565b610edf610fd9565b823561105c5760405162461bcd60e51b815260206004820152601d60248201527f416d6f756e74206d7573742062652067726561746572207468616e20300000006044820152606401610374565b5f61106d60c0850160a08601611549565b6001600160a01b0316036110c35760405162461bcd60e51b815260206004820152601a60248201527f496e76616c6964206275726e20746f6b656e20616464726573730000000000006044820152606401610374565b6002545f906001600160a01b03166382a5e6656110e7610100870160e088016118f7565b6040516001600160e01b031960e084901b16815263ffffffff919091166004820152602401602060405180830381865afa158015611127573d5f5f3e3d5ffd5b505050506040513d601f19601f8201168201806040525081019061114b919061197a565b036111985760405162461bcd60e51b815260206004820152601a60248201527f496e76616c69642064657374696e6174696f6e20646f6d61696e0000000000006044820152606401610374565b8115610610575f8151116106105760405162461bcd60e51b8152602060048201526012602482015271486f6f6b206461746120697320656d70747960701b6044820152606401610374565b805142106112245760405162461bcd60e51b815260206004820152600e60248201526d14195c9b5a5d08195e1c1a5c995960921b6044820152606401610374565b805160208201516040808401516060850151915163d505accf60e01b815233600482015230602482015260448101879052606481019490945260ff909216608484015260a483019190915260c48201526001600160a01b0384169063d505accf9060e4015f604051808303815f87803b15801561129f575f5ffd5b505af1158015610573573d5f5f3e3d5ffd5b81156113cf576001546001600160a01b031661130f5760405162461bcd60e51b815260206004820152601b60248201527f50726f746f636f6c206665652077616c6c6574206e6f742073657400000000006044820152606401610374565b60015460405163a9059cbb60e01b81526001600160a01b039182166004820152602481018490529085169063a9059cbb906044016020604051808303815f875af115801561135f573d5f5f3e3d5ffd5b505050506040513d601f19601f8201168201806040525081019061138391906118d8565b6113cf5760405162461bcd60e51b815260206004820152601c60248201527f50726f746f636f6c20466565207472616e73666572206661696c6564000000006044820152606401610374565b821561068e576001600160a01b0381166114425760405162461bcd60e51b815260206004820152602e60248201527f446576656c6f7065722066656520726563697069656e742063616e6e6f74206260448201526d65207a65726f206164647265737360901b6064820152608401610374565b60405163a9059cbb60e01b81526001600160a01b0382811660048301526024820185905285169063a9059cbb906044016020604051808303815f875af115801561148e573d5f5f3e3d5ffd5b505050506040513d601f19601f820116820180604052508101906114b291906118d8565b61068e5760405162461bcd60e51b815260206004820152601d60248201527f446576656c6f70657220466565207472616e73666572206661696c65640000006044820152606401610374565b5f611507610a44565b54600160401b900460ff16919050565b5f60208284031215611527575f5ffd5b5035919050565b80356001600160a01b0381168114611544575f5ffd5b919050565b5f60208284031215611559575f5ffd5b6115628261152e565b9392505050565b5f5f6040838503121561157a575f5ffd5b6115838361152e565b91506115916020840161152e565b90509250929050565b5f61012082840312156115ab575f5ffd5b50919050565b5f5f83601f8401126115c1575f5ffd5b50813567ffffffffffffffff8111156115d8575f5ffd5b6020830191508360208285010111156115ef575f5ffd5b9250929050565b5f5f5f6101408486031215611609575f5ffd5b611613858561159a565b925061012084013567ffffffffffffffff81111561162f575f5ffd5b61163b868287016115b1565b9497909650939450505050565b5f608082840312156115ab575f5ffd5b5f5f5f5f6101c0858703121561166c575f5ffd5b611676868661159a565b9350611686866101208701611648565b92506101a085013567ffffffffffffffff8111156116a2575f5ffd5b6116ae878288016115b1565b95989497509550505050565b5f81518084528060208401602086015e5f602082860101526020601f19601f83011685010191505092915050565b602081525f61156260208301846116ba565b5f5f6040838503121561170b575f5ffd5b823591506115916020840161152e565b5f5f6101a0838503121561172d575f5ffd5b611737848461159a565b9150611591846101208501611648565b5f6101208284031215611758575f5ffd5b611562838361159a565b634e487b7160e01b5f52601160045260245ffd5b8181038181111561031d5761031d611762565b5f608082840312801561179a575f5ffd5b506040516080810167ffffffffffffffff811182821017156117ca57634e487b7160e01b5f52604160045260245ffd5b60405282358152602083013560ff811681146117e4575f5ffd5b6020820152604083810135908201526060928301359281019290925250919050565b60208082526024908201527f46656520726563697069656e742063616e6e6f74206265207a65726f206164646040820152637265737360e01b606082015260800190565b60208082526025908201527f50726f746f636f6c206665652073686172652063616e6e6f7420657863656564604082015264203130302560d81b606082015260800190565b808202811582820484141761031d5761031d611762565b5f826118c057634e487b7160e01b5f52601260045260245ffd5b500490565b8082018082111561031d5761031d611762565b5f602082840312156118e8575f5ffd5b81518015158114611562575f5ffd5b5f60208284031215611907575f5ffd5b813563ffffffff81168114611562575f5ffd5b88815263ffffffff8816602082015286604082015260018060a01b03861660608201528460808201528360a082015263ffffffff831660c082015261010060e08201525f61196c6101008301846116ba565b9a9950505050505050505050565b5f6020828403121561198a575f5ffd5b505191905056fecd5ed15c6e187e77e9aee88184c21f4f2182ab5827cb3b7e07fbedcd63f033009b779b17422d0df92223018b32b4d1fa46e071723d6817e2486d003becc55f00a2646970667358221220ab4240dee7b73849b0bc4f29feb6619e79ea1f43256f46adc2b73aea0b27250c64736f6c634300081c0033","linkReferences":{}},"methodIdentifiers":{"bridgeWithPermit((uint256,uint256,uint256,bytes32,bytes32,address,address,uint32,uint32),(uint256,uint8,bytes32,bytes32))":"ba3ada42","bridgeWithPermitAndHook((uint256,uint256,uint256,bytes32,bytes32,address,address,uint32,uint32),(uint256,uint8,bytes32,bytes32),bytes)":"53a39028","bridgeWithPreapproval((uint256,uint256,uint256,bytes32,bytes32,address,address,uint32,uint32))":"d0d4229a","bridgeWithPreapprovalAndHook((uint256,uint256,uint256,bytes32,bytes32,address,address,uint32,uint32),bytes)":"513e1175","calculateFeeShares(uint256)":"29f783f5","cctpContract()":"e639cb7b","getProtocolFee(uint256)":"0f0245ad","getProtocolFeeConfig()":"7978bd01","initialize(address,address)":"485cc955","owner()":"8da5cb5b","pause()":"8456cb59","paused()":"5c975abb","renounceOwnership()":"715018a6","setCCTPContract(address)":"224b7e31","setProtocolFeeConfig(uint256,address)":"6333b4b3","setProtocolFeeShare(uint256)":"f742919b","setProtocolFeeWallet(address)":"7ce78525","transferOwnership(address)":"f2fde38b","unpause()":"3f4ba83a","version()":"54fd4d50"},"id":60}