{"abi":[{"type":"constructor","inputs":[],"stateMutability":"nonpayable"},{"type":"function","name":"bridgeStub","inputs":[],"outputs":[{"name":"","type":"string","internalType":"string"}],"stateMutability":"view"},{"type":"function","name":"bridgeWithPermit","inputs":[{"name":"params","type":"tuple","internalType":"struct BridgingKitContract.BridgeParams","components":[{"name":"amount","type":"uint256","internalType":"uint256"},{"name":"destinationDomain","type":"uint32","internalType":"uint32"},{"name":"minFinalityThreshold","type":"uint32","internalType":"uint32"},{"name":"maxFee","type":"uint256","internalType":"uint256"},{"name":"fee","type":"uint256","internalType":"uint256"},{"name":"burnToken","type":"address","internalType":"address"},{"name":"feeRecipient","type":"address","internalType":"address"},{"name":"mintRecipient","type":"bytes32","internalType":"bytes32"},{"name":"destinationCaller","type":"bytes32","internalType":"bytes32"},{"name":"feeIsBips","type":"bool","internalType":"bool"}]},{"name":"permitParams","type":"tuple","internalType":"struct BridgingKitContract.PermitParams","components":[{"name":"deadline","type":"uint256","internalType":"uint256"},{"name":"v","type":"uint8","internalType":"uint8"},{"name":"r","type":"bytes32","internalType":"bytes32"},{"name":"s","type":"bytes32","internalType":"bytes32"}]}],"outputs":[],"stateMutability":"nonpayable"},{"type":"function","name":"bridgeWithPreapproval","inputs":[{"name":"params","type":"tuple","internalType":"struct BridgingKitContract.BridgeParams","components":[{"name":"amount","type":"uint256","internalType":"uint256"},{"name":"destinationDomain","type":"uint32","internalType":"uint32"},{"name":"minFinalityThreshold","type":"uint32","internalType":"uint32"},{"name":"maxFee","type":"uint256","internalType":"uint256"},{"name":"fee","type":"uint256","internalType":"uint256"},{"name":"burnToken","type":"address","internalType":"address"},{"name":"feeRecipient","type":"address","internalType":"address"},{"name":"mintRecipient","type":"bytes32","internalType":"bytes32"},{"name":"destinationCaller","type":"bytes32","internalType":"bytes32"},{"name":"feeIsBips","type":"bool","internalType":"bool"}]}],"outputs":[],"stateMutability":"nonpayable"},{"type":"function","name":"calculateFees","inputs":[{"name":"amount","type":"uint256","internalType":"uint256"},{"name":"fee","type":"uint256","internalType":"uint256"},{"name":"feeIsBips","type":"bool","internalType":"bool"}],"outputs":[{"name":"developerShare","type":"uint256","internalType":"uint256"},{"name":"protocolShare","type":"uint256","internalType":"uint256"}],"stateMutability":"view"},{"type":"function","name":"cctpContract","inputs":[],"outputs":[{"name":"","type":"address","internalType":"contract ICCTP"}],"stateMutability":"view"},{"type":"function","name":"getProtocolFee","inputs":[{"name":"developerFee","type":"uint256","internalType":"uint256"}],"outputs":[{"name":"protocolFee","type":"uint256","internalType":"uint256"}],"stateMutability":"view"},{"type":"function","name":"getProtocolFeeConfig","inputs":[],"outputs":[{"name":"protocolFeeShare","type":"uint256","internalType":"uint256"},{"name":"protocolWallet","type":"address","internalType":"address"}],"stateMutability":"view"},{"type":"function","name":"initialize","inputs":[{"name":"_owner","type":"address","internalType":"address"},{"name":"_cctpContract","type":"address","internalType":"address"}],"outputs":[],"stateMutability":"nonpayable"},{"type":"function","name":"owner","inputs":[],"outputs":[{"name":"","type":"address","internalType":"address"}],"stateMutability":"view"},{"type":"function","name":"pause","inputs":[],"outputs":[],"stateMutability":"nonpayable"},{"type":"function","name":"paused","inputs":[],"outputs":[{"name":"","type":"bool","internalType":"bool"}],"stateMutability":"view"},{"type":"function","name":"renounceOwnership","inputs":[],"outputs":[],"stateMutability":"nonpayable"},{"type":"function","name":"setCCTPContract","inputs":[{"name":"_cctpContract","type":"address","internalType":"address"}],"outputs":[],"stateMutability":"nonpayable"},{"type":"function","name":"setProtocolFeeConfig","inputs":[{"name":"bips","type":"uint256","internalType":"uint256"},{"name":"wallet","type":"address","internalType":"address"}],"outputs":[],"stateMutability":"nonpayable"},{"type":"function","name":"setProtocolFeeShare","inputs":[{"name":"bips","type":"uint256","internalType":"uint256"}],"outputs":[],"stateMutability":"nonpayable"},{"type":"function","name":"setProtocolFeeWallet","inputs":[{"name":"wallet","type":"address","internalType":"address"}],"outputs":[],"stateMutability":"nonpayable"},{"type":"function","name":"transferOwnership","inputs":[{"name":"newOwner","type":"address","internalType":"address"}],"outputs":[],"stateMutability":"nonpayable"},{"type":"function","name":"unpause","inputs":[],"outputs":[],"stateMutability":"nonpayable"},{"type":"function","name":"version","inputs":[],"outputs":[{"name":"","type":"string","internalType":"string"}],"stateMutability":"pure"},{"type":"event","name":"BridgingKitInitialized","inputs":[{"name":"owner","type":"address","indexed":true,"internalType":"address"},{"name":"version","type":"string","indexed":false,"internalType":"string"}],"anonymous":false},{"type":"event","name":"CCTPContractUpdated","inputs":[{"name":"newCCTPContract","type":"address","indexed":true,"internalType":"address"}],"anonymous":false},{"type":"event","name":"Initialized","inputs":[{"name":"version","type":"uint64","indexed":false,"internalType":"uint64"}],"anonymous":false},{"type":"event","name":"OwnershipTransferred","inputs":[{"name":"previousOwner","type":"address","indexed":true,"internalType":"address"},{"name":"newOwner","type":"address","indexed":true,"internalType":"address"}],"anonymous":false},{"type":"event","name":"Paused","inputs":[{"name":"account","type":"address","indexed":false,"internalType":"address"}],"anonymous":false},{"type":"event","name":"ProtocolFeeShareUpdated","inputs":[{"name":"bips","type":"uint256","indexed":false,"internalType":"uint256"}],"anonymous":false},{"type":"event","name":"ProtocolFeeWalletUpdated","inputs":[{"name":"wallet","type":"address","indexed":false,"internalType":"address"}],"anonymous":false},{"type":"event","name":"Unpaused","inputs":[{"name":"account","type":"address","indexed":false,"internalType":"address"}],"anonymous":false},{"type":"error","name":"EnforcedPause","inputs":[]},{"type":"error","name":"ExpectedPause","inputs":[]},{"type":"error","name":"InvalidInitialization","inputs":[]},{"type":"error","name":"NotInitializing","inputs":[]},{"type":"error","name":"OwnableInvalidOwner","inputs":[{"name":"owner","type":"address","internalType":"address"}]},{"type":"error","name":"OwnableUnauthorizedAccount","inputs":[{"name":"account","type":"address","internalType":"address"}]},{"type":"error","name":"ReentrancyGuardReentrantCall","inputs":[]}],"bytecode":{"object":"0x6080604052348015600e575f5ffd5b5060156019565b60c9565b7ff0c57e16840df040f15088dc2f81fe391c3923bec73e23a9662efc9c229c6a00805468010000000000000000900460ff161560685760405163f92ee8a960e01b815260040160405180910390fd5b80546001600160401b039081161460c65780546001600160401b0319166001600160401b0390811782556040519081527fc7f505b2f371ae2175ee4913f4499e1f2633a7b5936321eed1cdaeb6115181d29060200160405180910390a15b50565b611aeb806100d65f395ff3fe608060405234801561000f575f5ffd5b506004361061011c575f3560e01c80636333b4b3116100a95780638456cb591161006e5780638456cb591461026c5780638da5cb5b14610274578063e639cb7b146102b8578063f2fde38b146102cb578063f742919b146102de575f5ffd5b80636333b4b314610209578063715018a61461021c5780637978bd01146102245780637ce78525146102465780637dc71f3c14610259575f5ffd5b8063485cc955116100ef578063485cc9551461018b5780634d5369a51461019e57806353ea5268146101b157806354fd4d50146101c65780635c975abb146101e7575f5ffd5b80630f0245ad146101205780631919e12414610146578063224b7e311461016e5780633f4ba83a14610183575b5f5ffd5b61013361012e366004611700565b6102f1565b6040519081526020015b60405180910390f35b610159610154366004611724565b610301565b6040805192835260208301919091520161013d565b61018161017c366004611775565b6103b1565b005b6101816104a6565b610181610199366004611795565b6104b8565b6101816101ac3660046117dd565b61063e565b6101b9610a5a565b60405161013d91906117f8565b6040805180820190915260058152640312e302e360dc1b60208201526101b9565b5f516020611a765f395f51905f525460ff16604051901515815260200161013d565b61018161021736600461182d565b610a82565b610181610b64565b5f54600154604080519283526001600160a01b0390911660208301520161013d565b610181610254366004611775565b610b75565b61018161026736600461184e565b610bf8565b61018161110b565b7f9016d09d72d40fdae2fd8ceac6b6234c7706214fd39c1cd1e609a0528c199300546001600160a01b03165b6040516001600160a01b03909116815260200161013d565b6002546102a0906001600160a01b031681565b6101816102d9366004611775565b61111b565b6101816102ec366004611700565b611155565b5f6102fb826111b3565b92915050565b5f5f821561036c5761271084111561036c5760405162461bcd60e51b815260206004820152602360248201527f46656520626173697320706f696e74732063616e6e6f7420657863656564203160448201526230302560e81b60648201526084015b60405180910390fd5b5f83610378578461038f565b61271061038586886118a2565b61038f91906118b9565b905061039a816111b3565b91506103a682826118d8565b925050935093915050565b6103b96111ce565b6001600160a01b0381166104065760405162461bcd60e51b8152602060048201526014602482015273496e76616c69642043435450206164647265737360601b6044820152606401610363565b6002546001600160a01b039081169082160361045d5760405162461bcd60e51b815260206004820152601660248201527510d0d514081859191c995cdcc81d5b98da185b99d95960521b6044820152606401610363565b600280546001600160a01b0319166001600160a01b0383169081179091556040517f13e43351de668f0b723ba56a1387b2017c3de0ba668b3c9230d6db21a59e74cf905f90a250565b6104ae6111ce565b6104b6611229565b565b5f6104c1611282565b805490915060ff600160401b820416159067ffffffffffffffff165f811580156104e85750825b90505f8267ffffffffffffffff1660011480156105045750303b155b905081158015610512575080155b156105305760405163f92ee8a960e01b815260040160405180910390fd5b845467ffffffffffffffff19166001178555831561055a57845460ff60401b1916600160401b1785555b610563876112aa565b61056b6112bb565b6105736112c3565b600280546001600160a01b038089166001600160a01b03199092169190911790915587167f7023d0700486f24148006aee2c2a8de3c33c51fd84ed2772ab1351ad5e2e04616105da6040805180820190915260058152640312e302e360dc1b602082015290565b6040516105e791906117f8565b60405180910390a2831561063557845460ff60401b19168555604051600181527fc7f505b2f371ae2175ee4913f4499e1f2633a7b5936321eed1cdaeb6115181d29060200160405180910390a15b50505050505050565b6106466112d3565b61064e611303565b803561069c5760405162461bcd60e51b815260206004820152601d60248201527f416d6f756e74206d7573742062652067726561746572207468616e20300000006044820152606401610363565b5f6106ad60c0830160a08401611775565b6001600160a01b0316036107035760405162461bcd60e51b815260206004820152601a60248201527f496e76616c6964206275726e20746f6b656e20616464726573730000000000006044820152606401610363565b6002545f906001600160a01b031663b35b046461072660408501602086016118eb565b6040516001600160e01b031960e084901b16815263ffffffff919091166004820152602401602060405180830381865afa158015610766573d5f5f3e3d5ffd5b505050506040513d601f19601f8201168201806040525081019061078a919061190e565b036107d75760405162461bcd60e51b815260206004820152601a60248201527f496e76616c69642064657374696e6174696f6e20646f6d61696e0000000000006044820152606401610363565b6107e760c0820160a08301611775565b6040516323b872dd60e01b8152336004820152306024820152823560448201526001600160a01b0391909116906323b872dd906064016020604051808303815f875af1158015610839573d5f5f3e3d5ffd5b505050506040513d601f19601f8201168201806040525081019061085d9190611925565b61089b5760405162461bcd60e51b815260206004820152600f60248201526e151c985b9cd9995c8819985a5b1959608a1b6044820152606401610363565b5f6108dd6108af60c0840160a08501611775565b833560808501356108c861014087016101208801611940565b6108d860e0880160c08901611775565b61133a565b90506108ef60c0830160a08401611775565b60025460405163095ea7b360e01b81526001600160a01b0391821660048201526024810184905291169063095ea7b3906044016020604051808303815f875af115801561093e573d5f5f3e3d5ffd5b505050506040513d601f19601f820116820180604052508101906109629190611925565b6109a05760405162461bcd60e51b815260206004820152600f60248201526e105c1c1c9bdd985b0819985a5b1959608a1b6044820152606401610363565b6002546001600160a01b0316638e0250ee826109c260408601602087016118eb565b60e08601356109d760c0880160a08901611775565b610100880135606089018035906109f19060408c016118eb565b6040518863ffffffff1660e01b8152600401610a13979695949392919061195b565b5f604051808303815f87803b158015610a2a575f5ffd5b505af1158015610a3c573d5f5f3e3d5ffd5b5050505050610a5760015f516020611a965f395f51905f5255565b50565b6060610a646112d3565b604051806060016040528060328152602001611a4460329139905090565b610a8a6111ce565b6001600160a01b038116610ab05760405162461bcd60e51b81526004016103639061199a565b612710821115610ad25760405162461bcd60e51b8152600401610363906119de565b5f829055600180546001600160a01b0319166001600160a01b0383161790556040518281527f4d1fc9430e27afb14db15169fd1c79e8b51773302919ac8c049f1c41995e380b9060200160405180910390a16040516001600160a01b03821681527f358018fb4c5e0f195ed9d5f483395376c4e634908ce5c6dc3b86171060ff2e089060200160405180910390a15050565b610b6c6111ce565b6104b65f61138c565b610b7d6111ce565b6001600160a01b038116610ba35760405162461bcd60e51b81526004016103639061199a565b600180546001600160a01b0319166001600160a01b0383169081179091556040519081527f358018fb4c5e0f195ed9d5f483395376c4e634908ce5c6dc3b86171060ff2e08906020015b60405180910390a150565b610c006112d3565b610c08611303565b8135610c565760405162461bcd60e51b815260206004820152601d60248201527f416d6f756e74206d7573742062652067726561746572207468616e20300000006044820152606401610363565b5f610c6760c0840160a08501611775565b6001600160a01b031603610cbd5760405162461bcd60e51b815260206004820152601a60248201527f496e76616c6964206275726e20746f6b656e20616464726573730000000000006044820152606401610363565b42813511610cfe5760405162461bcd60e51b815260206004820152600e60248201526d14195c9b5a5d08195e1c1a5c995960921b6044820152606401610363565b6002545f906001600160a01b031663b35b0464610d2160408601602087016118eb565b6040516001600160e01b031960e084901b16815263ffffffff919091166004820152602401602060405180830381865afa158015610d61573d5f5f3e3d5ffd5b505050506040513d601f19601f82011682018060405250810190610d85919061190e565b03610dd25760405162461bcd60e51b815260206004820152601a60248201527f496e76616c69642064657374696e6174696f6e20646f6d61696e0000000000006044820152606401610363565b610de260c0830160a08401611775565b6001600160a01b031663d505accf333085358535610e066040880160208901611a23565b604080516001600160e01b031960e089901b1681526001600160a01b0396871660048201529590941660248601526044850192909252606484015260ff16608483015284013560a4820152606084013560c482015260e4015f604051808303815f87803b158015610e75575f5ffd5b505af1158015610e87573d5f5f3e3d5ffd5b50610e9c9250505060c0830160a08401611775565b6040516323b872dd60e01b8152336004820152306024820152833560448201526001600160a01b0391909116906323b872dd906064016020604051808303815f875af1158015610eee573d5f5f3e3d5ffd5b505050506040513d601f19601f82011682018060405250810190610f129190611925565b610f505760405162461bcd60e51b815260206004820152600f60248201526e151c985b9cd9995c8819985a5b1959608a1b6044820152606401610363565b5f610f8d610f6460c0850160a08601611775565b84356080860135610f7d61014088016101208901611940565b6108d860e0890160c08a01611775565b9050610f9f60c0840160a08501611775565b60025460405163095ea7b360e01b81526001600160a01b0391821660048201526024810184905291169063095ea7b3906044016020604051808303815f875af1158015610fee573d5f5f3e3d5ffd5b505050506040513d601f19601f820116820180604052508101906110129190611925565b6110505760405162461bcd60e51b815260206004820152600f60248201526e105c1c1c9bdd985b0819985a5b1959608a1b6044820152606401610363565b6002546001600160a01b0316638e0250ee8261107260408701602088016118eb565b60e087013561108760c0890160a08a01611775565b61010089013560608a018035906110a19060408d016118eb565b6040518863ffffffff1660e01b81526004016110c3979695949392919061195b565b5f604051808303815f87803b1580156110da575f5ffd5b505af11580156110ec573d5f5f3e3d5ffd5b505050505061110760015f516020611a965f395f51905f5255565b5050565b6111136111ce565b6104b66113fc565b6111236111ce565b6001600160a01b03811661114c57604051631e4fbdf760e01b81525f6004820152602401610363565b610a578161138c565b61115d6111ce565b61271081111561117f5760405162461bcd60e51b8152600401610363906119de565b5f8190556040518181527f4d1fc9430e27afb14db15169fd1c79e8b51773302919ac8c049f1c41995e380b90602001610bed565b5f6127105f54836111c491906118a2565b6102fb91906118b9565b336112007f9016d09d72d40fdae2fd8ceac6b6234c7706214fd39c1cd1e609a0528c199300546001600160a01b031690565b6001600160a01b0316146104b65760405163118cdaa760e01b8152336004820152602401610363565b611231611444565b5f516020611a765f395f51905f52805460ff191681557f5db9ee0a495bf2e6ff9c91a7834c1ba4fdd244a5e8aa4e537bd38aeae4b073aa335b6040516001600160a01b039091168152602001610bed565b5f807ff0c57e16840df040f15088dc2f81fe391c3923bec73e23a9662efc9c229c6a006102fb565b6112b2611473565b610a5781611498565b6104b6611473565b6112cb611473565b6104b66114a0565b5f516020611a765f395f51905f525460ff16156104b65760405163d93c066560e01b815260040160405180910390fd5b5f516020611a965f395f51905f5280546001190161133457604051633ee5aeb560e01b815260040160405180910390fd5b60029055565b5f5f5f611348878787610301565b91509150611358888383876114a8565b8061136383896118d8565b61136d91906118d8565b98975050505050505050565b60015f516020611a965f395f51905f5255565b7f9016d09d72d40fdae2fd8ceac6b6234c7706214fd39c1cd1e609a0528c19930080546001600160a01b031981166001600160a01b03848116918217845560405192169182907f8be0079c531659141344cd1fd0a4f28419497f9722a3daafe3b4186f6b6457e0905f90a3505050565b6114046112d3565b5f516020611a765f395f51905f52805460ff191660011781557f62e78cea01bee320cd4e420270b5ea74000d11b0c9f74754ebdbfc544b05a2583361126a565b5f516020611a765f395f51905f525460ff166104b657604051638dfc202b60e01b815260040160405180910390fd5b61147b6116e7565b6104b657604051631afcd79f60e31b815260040160405180910390fd5b611123611473565b611379611473565b81156115bc576001546001600160a01b03166115065760405162461bcd60e51b815260206004820152601b60248201527f50726f746f636f6c206665652077616c6c6574206e6f742073657400000000006044820152606401610363565b60015460405163a9059cbb60e01b81526001600160a01b039182166004820152602481018490529085169063a9059cbb906044016020604051808303815f875af1158015611556573d5f5f3e3d5ffd5b505050506040513d601f19601f8201168201806040525081019061157a9190611925565b6115bc5760405162461bcd60e51b8152602060048201526013602482015272119959481d1c985b9cd9995c8819985a5b1959606a1b6044820152606401610363565b82156116e1576001600160a01b03811661162f5760405162461bcd60e51b815260206004820152602e60248201527f446576656c6f7065722066656520726563697069656e742063616e6e6f74206260448201526d65207a65726f206164647265737360901b6064820152608401610363565b60405163a9059cbb60e01b81526001600160a01b0382811660048301526024820185905285169063a9059cbb906044016020604051808303815f875af115801561167b573d5f5f3e3d5ffd5b505050506040513d601f19601f8201168201806040525081019061169f9190611925565b6116e15760405162461bcd60e51b8152602060048201526013602482015272119959481d1c985b9cd9995c8819985a5b1959606a1b6044820152606401610363565b50505050565b5f6116f0611282565b54600160401b900460ff16919050565b5f60208284031215611710575f5ffd5b5035919050565b8015158114610a57575f5ffd5b5f5f5f60608486031215611736575f5ffd5b8335925060208401359150604084013561174f81611717565b809150509250925092565b80356001600160a01b0381168114611770575f5ffd5b919050565b5f60208284031215611785575f5ffd5b61178e8261175a565b9392505050565b5f5f604083850312156117a6575f5ffd5b6117af8361175a565b91506117bd6020840161175a565b90509250929050565b5f61014082840312156117d7575f5ffd5b50919050565b5f61014082840312156117ee575f5ffd5b61178e83836117c6565b602081525f82518060208401528060208501604085015e5f604082850101526040601f19601f83011684010191505092915050565b5f5f6040838503121561183e575f5ffd5b823591506117bd6020840161175a565b5f5f8284036101c0811215611861575f5ffd5b61186b85856117c6565b9250608061013f198201121561187f575f5ffd5b50610140830190509250929050565b634e487b7160e01b5f52601160045260245ffd5b80820281158282048414176102fb576102fb61188e565b5f826118d357634e487b7160e01b5f52601260045260245ffd5b500490565b818103818111156102fb576102fb61188e565b5f602082840312156118fb575f5ffd5b813563ffffffff8116811461178e575f5ffd5b5f6020828403121561191e575f5ffd5b5051919050565b5f60208284031215611935575f5ffd5b815161178e81611717565b5f60208284031215611950575f5ffd5b813561178e81611717565b96875263ffffffff958616602088015260408701949094526001600160a01b03929092166060860152608085015260a08401521660c082015260e00190565b60208082526024908201527f46656520726563697069656e742063616e6e6f74206265207a65726f206164646040820152637265737360e01b606082015260800190565b60208082526025908201527f50726f746f636f6c206665652073686172652063616e6e6f7420657863656564604082015264203130302560d81b606082015260800190565b5f60208284031215611a33575f5ffd5b813560ff8116811461178e575f5ffdfe4272696467696e674b69742073747562206d6574686f64202d20726561647920666f7220696d706c656d656e746174696f6ecd5ed15c6e187e77e9aee88184c21f4f2182ab5827cb3b7e07fbedcd63f033009b779b17422d0df92223018b32b4d1fa46e071723d6817e2486d003becc55f00a2646970667358221220f6463def8ca4eaa22e77b5d116df4f51b1b9ea62a7867416c7c5d528424a8e1364736f6c634300081c0033","linkReferences":{}},"methodIdentifiers":{"bridgeStub()":"53ea5268","bridgeWithPermit((uint256,uint32,uint32,uint256,uint256,address,address,bytes32,bytes32,bool),(uint256,uint8,bytes32,bytes32))":"7dc71f3c","bridgeWithPreapproval((uint256,uint32,uint32,uint256,uint256,address,address,bytes32,bytes32,bool))":"4d5369a5","calculateFees(uint256,uint256,bool)":"1919e124","cctpContract()":"e639cb7b","getProtocolFee(uint256)":"0f0245ad","getProtocolFeeConfig()":"7978bd01","initialize(address,address)":"485cc955","owner()":"8da5cb5b","pause()":"8456cb59","paused()":"5c975abb","renounceOwnership()":"715018a6","setCCTPContract(address)":"224b7e31","setProtocolFeeConfig(uint256,address)":"6333b4b3","setProtocolFeeShare(uint256)":"f742919b","setProtocolFeeWallet(address)":"7ce78525","transferOwnership(address)":"f2fde38b","unpause()":"3f4ba83a","version()":"54fd4d50"},"id":35}